:020000044000BA
:100000006FF0084813000000130000001300000008
:100010001300000013000000130000001300000094
:10002000732700FCF32700BCB3F7E70093F7170032
:1000300063940700678000006FF0084C930700008E
:10004000739007BC736004306FF008669305050079
:1000500037750940130101F81305050B232E11060E
:10006000232C8106232A91062328210723263107E2
:10007000EF10997EEF10997D9377F50F1304000030
:100080009304D0001309A000930900056F008002BB
:1000900063862703130414001307C1003307870086
:1000A000A30FF7FEEF10D97FEF10597A9377F50F72
:1000B0006306340113850700E39C97FC9307010650
:1000C000338487001305A000230604FAEF10597D3E
:1000D0001305C1001306000093050000EF10991AE4
:1000E0008320C107032481078324410703290107D3
:1000F0008329C106130101086780000037E3FFFF71
:10010000130101FE37750940232E11001305850BDD
:1001100033016100EF109979F32800B03727000010
:10012000930601013307D700B7E7FFFFB307F700D6
:100130002326F100138507009306000093050000B5
:1001400013060700130880008327C10003A70700D8
:10015000938747003307D70023AEE7FEE398C7FE37
:10016000832705009386160013054500B385F50027
:10017000E39C06FD732600B0330616419356F64104
:100180003723000093962601330161008320C101CB
:1001900093D62601B386C6003775094093D6E6404C
:1001A0001305C50C130101026F10196B37E3FFFF34
:1001B000130101FE37750940232E110013050510A8
:1001C00033016100EF10996E732800B037270000EB
:1001D000930601013307D700B7E7FFFFB307F70026
:1001E0002326F10013860700B726000093070101BC
:1001F0001307000093050000B386F6001305800086
:100200008327C10023A0E70093874700E39CD7FE24
:10021000832706001307170013064600B385F50071
:10022000E310A7FE732600B0330606419356F6414D
:100230003723000093962601330161008320C1011A
:1002400093D62601B386C6003775094093D6E6409B
:1002500013050511130101026F10196037E3FFFF49
:10026000130101FE37750940232E11001305C51334
:1002700033016100EF109963732800B03727000045
:10028000930601013307D700B7E7FFFFB307F70075
:100290002326F1001385071013860700930500003D
:1002A000930607008327C10003A70700938707026F
:1002B000B385E500E39AD7FE2320B6001306460077
:1002C000E312A6FE732600B0330606419356F641AC
:1002D0003723000093962601330161008320C1017A
:1002E00093D62601B386C6003775094093D6E640FB
:1002F00013054515130101026F101956130101FE74
:1003000037E3FFFF37750940232E11001305C5178A
:1003100033016100EF10995993060101372700005E
:100320003307D700B7E7FFFFB307F700B7160000A2
:100330002326F100B386D7009305000003A707002A
:1003400093874700B385E500E39AD7FE732500B095
:100350000326C1008327C10003A707009387470036
:10036000B385E500E39AD7FE2320B60013064600C6
:10037000E312F6FE732600B03306A6409356F6410C
:10038000372300009396C600330161008320C1012A
:1003900093D6C600B386C6003775094093D646414A
:1003A00013054515130101026F10194B37E3FFFFC9
:1003B000130101FE37750940232E1100130545195D
:1003C00033016100EF10994E732800B03727000009
:1003D000930601013307D700B7E7FFFFB307F70024
:1003E0002326F100138507021386070093050000FA
:1003F000930607008327C10003A7070093874700E0
:10040000B385E500E39AD7FE2320B6001306460025
:10041000E312A6FE732600B0330606419356F6415A
:100420003723000093962601330161008320C10128
:1004300093D62601B386C6003775094093D6E640A9
:1004400013054515130101026F10194137450F407F
:10045000130545A06F00C044130101FF23261100BE
:10046000EFF0DFBDB7750940377509409385452D1D
:100470001305C52DEF10593E37450F401305C5A78D
:10048000EF0000428320C1001305000013010101A9
:100490006780000037450F40130545B16F004040AD
:1004A000130101FF23261100EF10593A8320C100E8
:1004B0001375F50F1301010167800000130101FF9F
:1004C00023248100232611001304050003450500A1
:1004D000630A050013041400EF10993C034504005F
:1004E000E31A05FE8320C1000324810013010101EA
:1004F000678000006780000037450F401305C5B4D2
:100500006F00003A37750940130101FF130585405C
:10051000232611002324810023229100232021017E
:10052000EF10D9383775094013050542EFF01FB2B7
:10053000130405003775094013058543EFF01FB11B
:10054000930405000B08A4003779094093060500C1
:100550009307080013070800130604009305000022
:1005600013050945EF10592F0B189400930510003F
:10057000930708001307080093860400130604007D
:1005800013050945EF10592D0B2894009305200001
:10059000930708001307080093860400130604005D
:1005A00013050945EF10592B0B38940093053000C3
:1005B000930708001307080093860400130604003D
:1005C00013050945EF1059290B4894009305400085
:1005D000930708001307080093860400130604001D
:1005E00013050945EF1059270B5894009305500047
:1005F00093070800130708009386040013060400FD
:1006000013050945EF1059250B6894009305600008
:1006100093070800130708009386040013060400DC
:1006200013050945EF1059230B78940013060400B5
:10063000032481008320C10093860400130509452B
:1006400083244100032901009305700093070800EB
:1006500013070800130101016F10192037750940B5
:10066000130101FE13058549232E1100232C81005F
:10067000232A91002328210123263101232441012B
:10068000EF10D922377509401305454BB709010012
:1006900037890000B7140500EF105921130400003A
:1006A000377A09409389F9FF130939109384E4A13B
:1006B000334634018B06C4000B17C4008B27C400DB
:1006C0009305040013058A4E33042401EF10D91852
:1006D000E31094FE8320C10103248101832441019E
:1006E000032901018329C100032A810013010102AA
:1006F00067800000130101FA37750940232E71034A
:10070000232C810313058551370C0100B70B100B07
:10071000232C8104232E1104232A9104232821054C
:100720002326310523244105232251052320610579
:10073000232A91032328A1032326B10313040000D5
:10074000EF10D916130CFCFF232E0100938B3B23D3
:100750000329C101372B17FF930D0000130B3B7FBB
:100760008B09B4010B1AB4018B2AB4019305000064
:1007700093860D001306040013050000EF00905C43
:1007800093860D001306040093050000930C0500EA
:1007900013051000EF00105B9304050093860D0015
:1007A000130604009305000013052000EF00905984
:1007B000B7770940130D0500130919001385C753B6
:1007C0006394990163049A0CEF10590E3775094030
:1007D00013860D0093880A001388040093070A000B
:1007E00013870C0093860900930504002320A101C0
:1007F00013050558EF105906B3778901B38D7D01B4
:10080000638A0706E39E6DF50327C101B7077100F0
:10081000938757003304F40013071734B71722FFE8
:100820009387A7B4232EE100E314F4F20324810597
:100830008320C105832441058329C104032A81043F
:10084000832A4104032B0104832BC103032C81035E
:10085000832C4103032D0103832DC102930509005D
:1008600003290105377509401305055F13010106CA
:100870006F10897EB7770940930509001385875D5E
:10088000EF10897DE39E6DED6FF01FF8E39EAAF3F4
:100890006FF09FF637450F40130545B86F004000D5
:1008A000130101F72322910823202109232E310768
:1008B000232C4107232A5107232861072326710788
:1008C00023248107232291072320A107232611082F
:1008D00023248108232EB105130A0500930A8500FD
:1008E000B77B0940377B0940B77909409304A000E2
:1008F0001309D000377C0940377D0940B77C094097
:1009000003250A0013840A00EF50895013060500DE
:10091000930D05009305D00313050100EF50894B9B
:1009200083250A0093070105B38DB7011306010063
:1009300013854B6723880DFAEF10097283458A00EF
:10094000638E0500032644001385496813040401DF
:10095000EF10897083450400E39605FE83254A0065
:100960001305CB67EF10496FEFF09FB31304050039
:10097000E30C95FEE30A25FFEF10897283478A0096
:10098000638C0700938D0A00638E870083C70D0177
:10099000938D0D01E39A07FE13050C69EF10C96BE7
:1009A0006FF01FF61305A000EF10896F83C7CD000D
:1009B0006392070283A54D001305CD69EF10C96945
:1009C00083A78D00E78007001385CC6AEF10096EBE
:1009D0006FF01FF38320C10803248108832441089A
:1009E000032901088329C107032A8107832A4107B4
:1009F000032B0107832BC106032C8106832C4106A0
:100A0000032D0106832DC105130101096780000034
:100A1000130101FF23261100EFE0887E377509409E
:100A20001305056BEF104963EFE0D80AEFE01808F3
:100A300083051500830705008320C1003775094031
:100A40001305056CB385F540130101016F10C960F2
:100A500037750940130101FF1305456D2326110069
:100A6000EF10C96437350E4013058593EFE0487EDB
:100A7000377509401305056BEF10095EEFE0980527
:100A8000EFE0D80283051500830705008320C1002D
:100A9000377509401305056CB385F5401301010155
:100AA0006F10895B37750940130101FF1305856ECF
:100AB00023261100EF10895F37550E40130585D3AB
:100AC000EFE00879377509401305056BEF10C95839
:100AD000EFE05800EFE0887D8305150083070500EF
:100AE0008320C100377509401305056CB385F540B7
:100AF000130101016F104956130101FE232E11004D
:100B0000232C8100232A910023282101B774094056
:100B100023263101EFE0C86E1385046BEF10C95333
:100B2000EFE0487BEFE0887803060500030415003A
:100B300037350E40130585933304C440EFE0487108
:100B40001385046BEF104951EFE0C878EFE00876A9
:100B5000830705000309150037550E40130585D39B
:100B60003309F940EFE0C86E1385046BEF10C94EEE
:100B7000EFE04876EFE08873830415000307050073
:100B8000930700F7B384E4406318F4089307200345
:100B90006318F9029307200E6392F40A032481017B
:100BA0008320C10183244101032901018329C1005C
:100BB0003775094013054573130101026F10094F82
:100BC000B779094093062003130609009305100026
:100BD0001385896FEF1049489307200E638CF4004A
:100BE0009306200E13860400930520001385896F59
:100BF000EF108946032481018320C1018324410130
:100C0000032901018329C1003775094013050575C2
:100C1000130101026F108949B7790940930600F763
:100C200013060400930500001385896FEF10C94275
:100C300093072003E302F9FA6FF0DFF8B779094070
:100C40006FF01FFAB7470F4083A547C437850940A7
:100C5000130101FF1305858023261100EFE0882F83
:100C60008320C10037450F401305C5BD13010101A5
:100C70006FF01FC337150E40130101FF130505E286
:100C800023261100EF10493D37150E409305000053
:100C90001305C5E2EF10493C37150E4093050000DF
:100CA0001305C5E3EF10493BF32500B08320C100D5
:100CB00037150E401305C5E4130101016F10C93942
:100CC00037150E40B7470F401307100013060000FA
:100CD000930510001305C5E523A8E7DA6F10C9379F
:100CE00037150E40B7470F4013060000930500006C
:100CF0001305C5E523A807DA6F100936B7470F407B
:100D000083A507DB37150E40130101FF130585E7A7
:100D100023261100EF10493493070000739007B0A9
:100D20008320C1001301010167800000B7470F4015
:100D300083A507DB37150E401305C5E96F10C931D0
:100D4000B7470F4083A507DB37150E40130545EB6A
:100D50006F108930130101FFB7470F0023261100E0
:100D600093870724130000009387F7FFE39C07FE97
:100D7000B7470F0093870724130000009387F7FFFE
:100D8000E39C07FEB7470F0093870724130000007A
:100D90009387F7FFE39C07FE37150E40930500008D
:100DA0001305C5ECEF10492B37150E4093050000D5
:100DB000130585EEEF10492A37150E409305000004
:100DC000130545F0EF10492937150E409305000033
:100DD000130505F2EF10492837150E409305000062
:100DE0001305C5F3EF10492737150E40130585F598
:100DF000EF10892637150E40930500001305C5F541
:100E0000EF1089258320C10037150E40930500009F
:100E1000130505F9130101016F100924130101FFE6
:100E200023248100232291002326110093840500AE
:100E30001304050063940504B79798009387F76738
:100E400063EEA702B72700009387F77063F6A70841
:100E50001305451FB33585001306803E9306000039
:100E6000EF00D90C1306050037150E4093860500D8
:100E70001305C5FCEF10491E6F00C00337A507001E
:100E8000130505123305A400B335850037460F005E
:100E90001306062493060000B3859500EF00190998
:100EA0001306050037150E4093860500130545FC13
:100EB000EF10891A13060400032481008320C10067
:100EC000938604008324410037150E401305C5FDA9
:100ED000130101016F1049181306050037150E4064
:100EE00093060000130545FDEF1009176FF09FFCF6
:100EF0006780000037150E401305C5FE6F10C91539
:100F000037450F40130585C46FF09F9913F6C5FF51
:100F10003306C500130700006306C50E37339ECCA9
:100F2000B738871B377854E6130313D5938838599D
:100F3000130848B68327050013054500B3876702E9
:100F40009396F70093D71701B3E7D700B38717033A
:100F5000B3C7E7001397D70093D73701B367F700FC
:100F600013972700B307F70033870701E314A6FCA4
:100F7000B3C7E50093F53500638C050493061000B4
:100F8000034706006382D50283461600130520003E
:100F9000939686003307D7006388A5008346260012
:100FA000939606013307D700B7369ECC938616D5A5
:100FB0003307D7029316F7001357170133E7E600FC
:100FC000B736871B938636593307D702B3C7E70076
:100FD00013D70701B347F70037D7EB851307B7A639
:100FE0003387E70237B5B2C2130555E39357D700ED
:100FF000B3C7E700B387A70213D507013345F50050
:1010000067800000938705006FF0DFF6B7170E408A
:10101000130101D89387071D232E1126232C812627
:10102000232A9126232821272326312723244127D9
:101030002322512723206127232E712513074100E6
:101040009388472403A8070003A5470083A58700CA
:1010500003A6C70083A60701232007012322A700B8
:101060002324B7002326C7002328D70093874701EE
:1010700013074701E39817FD83A6070083A74700DE
:10108000130481002320D7002322F70093040000DB
:1010900093090000371B0E4037190E40B71A0E4057
:1010A000130AF0FFB71B0E40938504001305CB1005
:1010B000EF00997A8325440113050400EFF01FE542
:1010C0000326C4FF930605008325440113878A166F
:1010D00013050913638CC6041304C401EF00D97708
:1010E0008327440193841400E39047FD37150E4095
:1010F000138604009385090013054511EF00D97587
:101100008320C12703248127832441270329012722
:101110008329C126032A8126832A4126032B0126FF
:10112000832BC12513010128678000001387CB1290
:1011300013860600130509131304C401EF00D971C7
:10114000832744019389190093841400E39E47F593
:101150006FF0DFF9130101FCB7370F40232C810238
:1011600003A4874AB7370F402328210303A9C74A9E
:10117000B7370F402326310383A9074B232A910257
:10118000232441032322510323206103232E7101D1
:10119000232A91012328A1012326B101232E110224
:1011A000232C8101130A0000930B0002130B04008F
:1011B000371D0E40B7140E40B71C0E40B70A008012
:1011C000930D040013050B00EFF0C831130C05005C
:1011D000EFF0C81B9305050013050B00EFE0181F87
:1011E00093050900EFE0581FEFF0C82F1307050023
:1011F00093060C0013860B0093050D1713854417F7
:10120000EF0099651307D0389306400013060002DB
:1012100093854C1813854417EF00196493850900D2
:1012200013050400EFE0487593050000130C05005A
:10123000EFE0885C130B00026356050033CC8A0193
:10124000130BD00213050C00EFF0C829930B050017
:10125000EFF0C8139305050013050C00EFE0181715
:1012600093050900EFE05817EFF0C827B7170E40B5
:101270001307050013060B009385871893860B0050
:1012800013854417EF00595D938509001305040089
:10129000EFE0981493050000130C0500EFE0C8552B
:1012A000130B00026356050033CC8A01130BD002E6
:1012B00013050C00EFF00823930B0500EFF0080D69
:1012C0009305050013050C00EFE058109305090085
:1012D000EFE09810EFF00821B7170E401307050054
:1012E00013060B009385C71893860B0013854417CC
:1012F000EF0099569385090013050400EFE0180DDF
:1013000093050000130C0500EFE0084F130B0002DB
:101310006356050033CC8A01130BD00213050C0071
:10132000EFF0481C930B0500EFF04806930505000D
:1013300013050C00EFE0980993050900EFE0D809C8
:10134000EFF0481AB7170E401307050013060B00FD
:101350009385071993860B0013854417EF00D94F27
:101360009385090013050400EFE058289305000059
:1013700013040500EFE04848130B00026356050014
:1013800033C48A00130BD00213050400EFF0881554
:10139000930B0500EFE0987F93050500130504000B
:1013A000EFE0D80293050900EFE01803EFF088138F
:1013B000B7170E40130705009385471993860B0056
:1013C00013060B0013854417EF001949B77709403E
:1013D0001385071AEF005948130A1A009307A00053
:1013E000630CFA0213050A00EFE0587A93850D00AA
:1013F000EFE088589305000013040500EFE0C83FB4
:1014000033CB8A00930BD002E34E05DA130B0400B2
:10141000930B00026FF01FDB8320C10303248103C1
:1014200083244103032901038329C102032A810282
:10143000832A4102032B0102832BC101032C81016A
:10144000832C4101032D0101832DC10013010104EF
:101450006780000037450F40130505CE6FF04FC47D
:1014600037150E401305C5416F005944130101FDA6
:1014700037150E402322910223202103232E310110
:10148000232A51012328610113050543B7C4DC8ECB
:10149000B709771037591C78372B0110B7BAEC6EA3
:1014A000232C4101232671012326110223248102CA
:1014B000938494A9EF00993F371A0E40B74B2381CC
:1014C00093897907130919C6130B5B34938AFA853C
:1014D00013848B568B8684001306040093850400C6
:1014E0003304340113054A45EF001937E31424FF90
:1014F000B3846401E39E54FD032481028320C1026E
:1015000083244102032901028329C101032A8101A5
:10151000832A4101032B0101832BC10037150E40A3
:101520009305200D13050547130101036F00D93200
:1015300037450F40130585D26FF08FB667800000E6
:1015400067800000130101FF232611001375350089
:101550006302050237150E40931556001305C54A60
:10156000EF00992F8320C100130500001301010132
:101570006780000037150E401305C54CEF00D92DCC
:101580008320C100130500001301010167800000E2
:1015900003230500130101FC2324C1022326D102E9
:1015A0002328E102232AF102232C0103232E110315
:1015B0008327830013068102232E11002326C100F6
:1015C000E78007008320C101130101046780000048
:1015D0009376F50F13071001636ED712B7170E40FD
:1015E00093874750131525003305F5008327050021
:1015F000678007009307100123A0F5001305000082
:10160000678000009307200123A0F5001305000068
:10161000678000009307100023A0F5001305000069
:10162000678000009307A00023A0F50013050000C9
:10163000678000009307200023A0F5001305000039
:10164000678000009307300023A0F5001305000019
:10165000678000009307400023A0F50013050000F9
:10166000678000009307500023A0F50013050000D9
:10167000678000009307600023A0F50013050000B9
:10168000678000009307700023A0F5001305000099
:10169000678000009307800023A0F5001305000079
:1016A000678000009307900023A0F5001305000059
:1016B000678000009307B00023A0F5001305000029
:1016C000678000009307C00023A0F5001305000009
:1016D000678000009307D00023A0F50013050000E9
:1016E000678000009307E00023A0F50013050000C9
:1016F000678000009307F00023A0F50013050000A9
:10170000678000009307000123A0F5001305000087
:1017100067800000130101FF2326110093070600D4
:1017200023A00500B7150E40130605009385054E4E
:1017300013850700EFF0DFE58320C10013051000DB
:10174000130101016780000013050000678000009D
:10175000130101FF2324810023261100232291007D
:1017600013040500630605106384051013050600C5
:101770006300061093840600638C060E8327060020
:10178000930580001306400083A70700E780070049
:10179000832704001306A00023200500B307F440AC
:1017A00003D7070023020500637EE60883D6A7005F
:1017B000638A0608B306D40003C606009306B00089
:1017C0006312D6089306C00063FEE60683D7C700FF
:1017D0003304F4006388070683270400930640005F
:1017E0003304F40083270400B307F44003D7070051
:1017F00063F8E60683D647001306000063800602FE
:10180000B306D40083850600130840009386F5FFD5
:1018100093F6F60F6364D800138605002320C500F5
:101820009306600063F8E60403D76700930710008F
:10183000630807003304E40083470400B337F00073
:101840002302F5008320C1000324810023A0A4000B
:10185000832441001305000013010101678000008B
:1018600093071000232005002302F5006FF09FFD71
:10187000EF000901930710002302F5006FF09FFCB1
:101880001305000067800000130101FE232E1100E4
:10189000232C8100232A91002328210123263101B2
:1018A0002324410163040510138A05006380051099
:1018B00093040600630C060E938906006388060EE7
:1018C00083270600130405001306400083A70700C2
:1018D0009305400013850400E78007008327040078
:1018E0009306A00023200500B307F44003D70700A8
:1018F0001309050063F6E60883D6A700638206088D
:10190000B306D40003C6060093068002631AD60607
:101910009306C00063F6E60683D7C7003304F400DD
:1019200063800706832704001307400013050000A7
:101930003304F40083270400B307F44083D6070080
:10194000637AD70083D74700638607003304F40027
:101950000305040013060A0093050900EFF05FC7B2
:1019600013040500630E050083A704009305090016
:101970001385040083A74700E78007006F00C000BD
:1019800023A02901130400008320C10113050400D2
:101990000324810183244101032901018329C1001A
:1019A000032A81001301010267800000EFF0586DE7
:1019B000130101FE232E1100232C8100232A910004
:1019C000232821012326310123244101630405102A
:1019D000138A05006380051093040600630C060E4D
:1019E000938906006388060E83270600130405000A
:1019F0001306400083A707009305400013850400E9
:101A0000E7800700832704009306A0002320050039
:101A1000B307F44003D707001309050063F6E6088F
:101A200083D6A70063820608B306D40003C6060067
:101A300093069003631AD6069306C00063F6E60683
:101A400083D7C7003304F4006380070683270400AC
:101A500013074000130500003304F400832704003B
:101A6000B307F44083D60700637AD70083D74700D3
:101A7000638607003304F4000305040013060A001C
:101A800093050900EFF0DFB413040500630E0500B1
:101A900083A70400930509001385040083A747006A
:101AA000E78007006F00C00023A029011304000095
:101AB0008320C10113050400032481018324410113
:101AC000032901018329C100032A810013010102B6
:101AD00067800000EFF0D85A13050000678000000F
:101AE00013050000678000001305000067800000F8
:101AF0001305000067800000130101FF232481000B
:101B00002326110023229100130405006300050C15
:101B1000638E050A13050600630A060A938406000D
:101B20006386060A832706009305400013064000DB
:101B300083A70700E7800700832704009306A0001F
:101B400023200500B307F44003D7070063F2E6063D
:101B500083D6A700638E0604B306D40003C606002E
:101B6000930670066316D6049306C00063F2E6047B
:101B700083D7C7003304F400638C07028327040073
:101B800093064000130700003304F4008327040089
:101B9000B307F44003D6070063FAC60083D74700B3
:101BA000638607003304F400032704002320E500C4
:101BB0008320C1000324810023A0A40083244100CA
:101BC000130500001301010167800000EFF0584B7E
:101BD000130101FE232E1100232C8100232A9100E2
:101BE00023282101232631012324410123225101ED
:101BF00063060514938A050063820514130A060020
:101C0000630E061293890600638A06128327060074
:101C1000130405001306400083A707009305800006
:101C200013050A00E7800700832704009306A0003D
:101C300023200500B307F44003D707002322050043
:101C40009304050063F4E60C83D6A7006380060CBA
:101C5000B306D40003C60600930650026318D60AE2
:101C60009306C00063F4E60A83D7C7003304F40088
:101C7000638E070883270400130740001305000044
:101C80003304F40083270400B307F44083D607002D
:101C9000637AD70083D7470063860700B307F40051
:101CA0000385070013860A0093850400EFF05F9216
:101CB000130905006310050483270400130760005F
:101CC00013050000B307F44083D60700637AD700FA
:101CD00083D76700638607003304F400030504001C
:101CE00013860A0093854400EFF09F8E13090500C8
:101CF000630E050083270A009385040013050A007C
:101D000083A74700E78007006F00C00023A0990069
:101D1000130900008320C1010324810183244101B0
:101D20008329C100032A8100832A41001305090089
:101D3000032901011301010267800000EFF058340C
:101D40001305000067800000130101FF23248100B8
:101D5000232611002322910013040500630E050EB3
:101D6000638C050E130506006308060E93840600B7
:101D70006384060E83270600930580001306400047
:101D800083A70700E7800700832704001307A0004C
:101D900023200500B307F44003D6070023220500E3
:101DA0006374C70883D6A70063800608B306D4000F
:101DB00083C60600639AE6061307C0006376C7066B
:101DC00083D7C7003304F400638007068327040029
:101DD000930660003304F40083270400B307F44043
:101DE00003D7070063F0E60603D7670093060000F9
:101DF000630007023307E400030607009305400071
:101E00001307F6FF1377F70F63E4E5009306060068
:101E10002322D50083D74700638A07023304F400E6
:101E2000832704002320F5008320C10003248100C0
:101E300023A0A40083244100130500001301010125
:101E40006780000093064000E3E6E6FC930700008D
:101E50002320F5006FF05FFDEFF09822130101FFE2
:101E6000232481002326110023229100130405005E
:101E7000630C051A638A051A130506006306061A21
:101E8000938406006382061A832706009305800167
:101E90001306400083A70700E7800700832704009C
:101EA0001306A00023200500B307F44003D7070062
:101EB00023220500232405002326050023280500EE
:101EC000232A05006370E61283D6A700638C0610F0
:101ED000B306D40003C60600930610006314D610A0
:101EE0009306C00063F0E61083D7C7003304F40004
:101EF000638A070E83270400130740003304F400AD
:101F000083270400B307F44003D60700637AC70EA3
:101F100003D7470093061000630E07003307E40061
:101F200003070700630807001307F7FF13371700BD
:101F3000931617002320D500130760006376C70CA3
:101F400003D7670093060000630607003307E40029
:101F5000832607002322D500130780006376C70A73
:101F600003D7870093060000630607003307E400E9
:101F7000832607002324D5001307A0006376C70833
:101F800003D7A700630207083307E400030707002D
:101F9000930540009306F7FF93F6F60F63E6D50628
:101FA0002326E5001307C0006378C70603D7C700E0
:101FB00093061000630607003307E400832607003A
:101FC0002328D5001307E0006372C70603D7E70094
:101FD00093071000630607003304E400832704001E
:101FE000232AF5008320C1000324810023A0A4003C
:101FF00083244100130500001301010167800000E4
:10200000130710002320E500130700002326E50036
:102010001307C000E36CC7F8930710002328F500EE
:10202000232AF5006FF01FFCEFF0980593071000CE
:10203000232AF5006FF01FFB130101FF2324810009
:10204000232611002322910013040500630A050EC4
:102050006388050E130506006304060E93840600CC
:102060006380060E832706009305200013061000E8
:1020700083A70700E7800700832704001306A0005A
:1020800023000500B307F44003D70700A3000500B1
:102090006374E60883D6A70063800608B306D400FD
:1020A00003C60600930660066318D6069306C000B2
:1020B00063F4E60683D7C7003304F400638E070495
:1020C00083270400930640003304F40083270400B0
:1020D000B307F44003D7070063FEE60403D64700C6
:1020E00093060000630806003306C400834606001A
:1020F000B336D0002300D5009306600063FCE602EF
:1021000083D76700638807023304F4008347040021
:10211000B337F000A300F5008320C1000324810041
:1021200023A0A40083244100130500001301010132
:102130006780000093070000A300F5006FF0DFFD4B
:10214000EFF008741305000067800000130101FF21
:10215000232481002326110023229100130405006B
:102160006300050C638E050A13050600630A060A60
:10217000938406006386060A8327060093054000C1
:102180001306400083A70700E780070083270400A9
:102190009306A00023200500B307F44003D70700EF
:1021A00063F2E60683D6A700638E0604B306D40066
:1021B00003C606009306E0056316D6049306C00026
:1021C00063F2E60483D7C7003304F400638C07028C
:1021D0008327040093064000130700003304F40033
:1021E00083270400B307F44003D6070063FAC60050
:1021F00083D74700638607003304F40003270400F5
:102200002320E5008320C1000324810023A0A40033
:1022100083244100130500001301010167800000C1
:10222000EFF00866130101FF23248100232611002B
:102230002322910013040500630E051C638C051C0A
:10224000130506006308061C938406006384061CBD
:10225000832706009305C0011306400083A70700EB
:10226000E7800700832704001306A0002320050051
:10227000B307F44003D707002322050023240500F9
:102280002326050023280500232A0500232C05000A
:102290006370E61483D6A700638C0612B306D400DD
:1022A00003C60600930620006314D6129306C000EE
:1022B00063F0E61283D7C7003304F400638A071083
:1022C00083270400130740003304F400832704002D
:1022D000B307F44003D60700637AC71003D747005B
:1022E00093061000630E07003307E400030707009E
:1022F000630807001307F7FF13371700931617003B
:102300002320D500130760006376C70E03D767004C
:1023100093060000630607003307E40083260700E6
:102320002322D500130780006376C70C03D78700EC
:1023300093060000630607003307E40083260700C6
:102340002324D5001307A0006376C70A03D7A7008C
:1023500093060000630607003307E40083260700A6
:102360002326D5001307C0006376C70803D7C7002C
:10237000630207083307E4000307070093054000E2
:102380009306F7FF93F6F60F63E6D5062328E500DC
:102390001307E0006378C70603D7E7009306100031
:1023A000630607003307E40083260700232AD500CD
:1023B000130700016372C70603D7070193071000D4
:1023C000630607003304E40083270400232CF50090
:1023D0008320C1000324810023A0A40083244100A2
:1023E00013050000130101016780000013071000AE
:1023F0002320E500130700002328E5001307E00071
:10240000E36CC7F893071000232AF500232CF5008E
:102410006FF01FFCEFF0C84693071000232CF50067
:102420006FF01FFB1305000067800000130101FF20
:102430002324810023261100232291001304050088
:10244000630A050C6388050C130506006304060C7B
:10245000938406006380060C8327060093054000E2
:102460001306400083A70700E780070083270400C6
:102470009306A00023200500B307F44003D707000C
:1024800063FCE60683D6A70063880606B306D4007D
:1024900003C606009306D0016310D6069306C0005B
:1024A00063FCE60483D7C7003304F40063860704A3
:1024B0008327040093064000130700003304F40050
:1024C00083270400B307F44003D6070063F4C60271
:1024D00083D74700638007023304F40083060400B7
:1024E000130640009387F6FF93F7F70F6364F60037
:1024F000138706002320E5008320C1000324810008
:1025000023A0A4008324410013050000130101014E
:1025100067800000EFF0C8361305000067800000F8
:1025200013050000678000001305000067800000AD
:10253000130500006780000013050000678000009D
:10254000130500006780000013050000678000008D
:102550001305000067800000130101FE232E110007
:10256000232C8100232A91002328210123263101D5
:1025700023244101630C051A138A05006388051A98
:10258000130906006304061A938906006380061A7D
:1025900083270600130405001306400083A70700E5
:1025A0009305C00013050900E78007008327040096
:1025B0001306A00023200500B307F44003D707004B
:1025C0002322050023140500930405006370E60E22
:1025D00083D6A700638C060CB306D40003C606009E
:1025E000930680006314D60C9306C00063F0E60CDB
:1025F00083D7C7003304F400638A070A0325040065
:10260000930640003304A40083270400B307F4407A
:1026100003D7070063F4E61083D6470013060000D3
:1026200063800602B306D4008385060013054000CC
:102630009386F5FF93F6F60F6364D50013860500C5
:1026400023A0C4009306800063FCE60C03D6870039
:1026500093060000630806003306C40083460600A4
:10266000B336D0002384D4009306A00063F0E602C2
:1026700083D6A7001307000063880600B306D400C2
:1026800003C706003337E000A384E40083D7670064
:10269000638E07003304F400830704006388070097
:1026A000130710006398E70223A2F4008320C101FE
:1026B0000324810123A099000329010183244101FE
:1026C0008329C100032A81001305000013010102C0
:1026D00067800000B7150E409385C55413050A00A6
:1026E000EFE01FEB83270900130509009385040021
:1026F00083A74700E78007008320C10103248101ED
:1027000083244101032901018329C100032A810097
:1027100013051000130101026780000023A00400CC
:1027200093066000E3F4E6F86FF05FF6EFF048150B
:10273000130101FF2324810023261100232291008D
:10274000130405006306050E6384050E13050600D9
:102750006300060E93840600638C060C8327060034
:10276000930580001306400083A70700E780070059
:10277000832704009306A00023200500B307F4403C
:1027800003D707002322050063F0E60883D6A700DD
:10279000638C0606B306D40003C6060093067001D8
:1027A0006314D6069306C00063F0E60683D7C7001D
:1027B0003304F400638A070483270400930640006F
:1027C0003304F40083270400B307F44003D7070061
:1027D00063FAE60483D6470013060000638606000A
:1027E000B306D40003A606002320C50093066000AC
:1027F00063FAE60283D76700638607023304F400B6
:10280000832704002322F5008320C10003248100D4
:1028100023A0A4008324410013050000130101013B
:1028200067800000930700002322F5006FF0DFFDB2
:10283000EFF0080513050000678000001305000095
:10284000678000001305000067800000130500008A
:1028500067800000130101FF23248100232611005B
:1028600023229100130405006306050E6384050E00
:10287000130506006300060E93840600638C060CA5
:1028800083270600930580001306400083A70700F6
:10289000E7800700832704009306A000232005009B
:1028A000B307F44003D707002322050063F0E608CE
:1028B00083D6A700638C0606B306D40003C60600C1
:1028C0009306C0056314D6069306C00063F0E606BF
:1028D00083D7C7003304F400638A07048327040006
:1028E000930640003304F40083270400B307F44048
:1028F00003D7070063FAE60483D6470013060000F7
:1029000063860600B306D40003A606002320C50094
:102910009306600063FAE60283D7670063860702C6
:102920003304F400832704002322F5008320C10030
:102930000324810023A0A400832441001305000088
:102940001301010167800000930700002322F500B6
:102950006FF0DFFDEFE0D872130101FF2324810047
:102960002326110023229100130405006308050C9F
:102970006386050C130506006302060C93840600AB
:10298000638E060A83270600930540001306400065
:1029900083A70700E7800700832704009306A000B1
:1029A00023200500B307F44003D7070063FAE606C7
:1029B00083D6A70063860606B306D40083C6060046
:1029C0001306C000639EC60463FCE60483D7C700F9
:1029D0003304F40063860704832704009306400051
:1029E000130700003304F40083270400B307F44006
:1029F00003D6070063F4C60283D74700638007024B
:102A00003304F40083060400130640009387F6FFA6
:102A100093F7F70F6364F600138706002320E500A1
:102A20008320C1000324810023A0A400832441004B
:102A3000130500001301010167800000EFE05864F6
:102A4000130101FF2324810023261100232291007A
:102A5000130405006302050C6380050C13050600D2
:102A6000630C060A938406006388060A832706001F
:102A7000930540001306400083A70700E780070086
:102A800083270400130700002320E500B307F44068
:102A900003D707009306A00063F2E60683D6A700DB
:102AA000638E0604B306D40003C606009306B00482
:102AB0006316D6049306C00063F2E60483D7C7000A
:102AC0003304F400638C070283270400930640005C
:102AD000130700003304F40083270400B307F44015
:102AE00003D6070063FAC60083D747006386070052
:102AF0003304F400032704002320E5008320C100F1
:102B00000324810023A0A4008324410013050000B6
:102B10001301010167800000EFE0985613050000E3
:102B200067800000130500006780000013050000A7
:102B30006780000013050000678000001305000097
:102B40006780000013050000678000001305000087
:102B50006780000013050000678000001305000077
:102B6000678000001305000067800000130101FF6B
:102B70002324810023261100232291001304050041
:102B80006308050C6386050C130506006302060C3A
:102B900093840600638E060A83270600930540008F
:102BA0001306400083A70700E7800700832704007F
:102BB0009306A00023200500B307F44003D70700C5
:102BC00063FAE60683D6A70063860606B306D4003A
:102BD00003C606009306D004631ED6049306C00005
:102BE00063FAE60483D7C7003304F4006384070460
:102BF0008327040093064000130710003304F400F9
:102C000083270400B307F44003D6070063F2C6022B
:102C100083D74700638E07003304F4008307040062
:102C2000638807001387F7FF133717001317170080
:102C30002320E5008320C1000324810023A0A400F9
:102C40008324410013050000130101016780000087
:102C5000EFE01843130101FF232481002326110014
:102C60002322910013040500630A050C6388050CF8
:102C7000130506006304060C938406006380060CAB
:102C800083270600930540001306400083A7070032
:102C9000E7800700832704009306A0002320050097
:102CA000B307F44003D7070063FCE60683D6A7000A
:102CB00063880606B306D40003C6060093065001D7
:102CC0006310D6069306C00063FCE60483D7C700F2
:102CD0003304F4006386070483270400930640004E
:102CE000130700003304F40083270400B307F44003
:102CF00003D6070063F4C60283D747006380070248
:102D00003304F40083060400130640009387F6FFA3
:102D100093F7F70F6364F600138706002320E5009E
:102D20008320C1000324810023A0A4008324410048
:102D3000130500001301010167800000EFE0583423
:102D40001305000067800000130500006780000085
:102D5000130101FF23248100232611002322910067
:102D6000130405006306050E6384050E13050600B3
:102D70006300060E93840600638C060C832706000E
:102D8000930580001306400083A70700E780070033
:102D9000832704009306A00023200500B307F44016
:102DA00003D707002322050063F0E60883D6A700B7
:102DB000638C0606B306D40003C606009306B00370
:102DC0006314D6069306C00063F0E60683D7C700F7
:102DD0003304F400638A0704832704009306400049
:102DE0003304F40083270400B307F44003D707003B
:102DF00063FAE60483D647001306000063860600E4
:102E0000B306D40003A606002320C5009306600085
:102E100063FAE60283D76700638607023304F4008F
:102E2000832704002322F5008320C10003248100AE
:102E300023A0A40083244100130500001301010115
:102E400067800000930700002322F5006FF0DFFD8C
:102E5000EFE0182313050000678000001305000051
:102E600067800000130101FF232481002326110045
:102E70002322910013040500630A051A6388051ACA
:102E8000130506006304061A938406006380061A7D
:102E900083270600930580021306400083A70700DE
:102EA000E7800700832704001306A0002320050005
:102EB000B307F44003D707002322050023240500AD
:102EC0002326050023280500232A0500232C0500BE
:102ED000232E050023200502232205026370E6123B
:102EE00083D6A700638C0610B306D40003C6060081
:102EF000930650006314D6109306C00063F0E610EA
:102F000083D7C7003304F400638A070E83270400C5
:102F1000130740003304F40083270400B307F44090
:102F200083D60700637AD70E03D747001306100035
:102F3000630E07003307E400030707006308070078
:102F40001307F7FF13371700131617002320C500C8
:102F5000130760006376D70C03D7670013060000E1
:102F6000630607003307E400032607002322C50099
:102F7000130780006376D70A03D787001306000083
:102F8000630607003307E400032607002324C50077
:102F90001307A0006376D70803D7A7001306000025
:102FA000630607003307E400032607002326C50055
:102FB0001307C0006376D70603D7C70013060000C7
:102FC000630607003307E400032607002328C50033
:102FD0001307E0006376D70483D7E7006382070412
:102FE0003304F40083070400930640001387F7FFBF
:102FF0001377F70F63E6E602232AF5008320C1006A
:103000000324810023A0A4008324410013050000B1
:103010001301010167800000930710002320F500D1
:1030200093070000232AF5006FF05FFDEFE05805DD
:103030001305000067800000130500006780000092
:103040001305000067800000130101FF23248100A5
:103050002326110023229100130405006302050CAE
:103060006380050C13050600630C060A93840600B2
:103070006388060A832706009305100013061000D4
:1030800083A70700E7800700832704009306A000BA
:1030900023000500B307F44003D7070063F4E606F6
:1030A00083D6A70063800606B306D40003C60600D5
:1030B0009306B0016318D6049306C00063F4E604D7
:1030C00083D7C7003304F400638E0702832704000C
:1030D00093064000130700003304F4008327040024
:1030E000B307F44003D6070063FCC60083D747004C
:1030F000638807003304F400034704003337E0001B
:103100002300E5008320C1000324810023A0A40044
:1031100083244100130500001301010167800000B2
:10312000EFE008761305000067800000130500003B
:1031300067800000130101FE232E1100232C810063
:10314000232A910023282101232631012324410130
:10315000630A051C138A05006386051C1309060013
:103160006302061C93890600638E061A83270600F5
:10317000930405001306400083A70700930540024F
:1031800013050900E780070083A704001308A000C7
:1031900023200500B387F44003D70700232205004E
:1031A000232405002326050023280500232A0500E3
:1031B000232C0500232E05002320050213040500FF
:1031C0006376E80E83D6A7006382060EB386D4002A
:1031D00003C6060093061001631AD60C9306C000BE
:1031E00063F6E60C83D7C700B384F4006380070C52
:1031F00083A7040013074000B384F40083A70400EE
:10320000B387F44083D607006372D70A83D7470099
:10321000638E0708B384F40083A7040013078000BB
:10322000B384F40083A704006366F70A638E07067D
:1032300083A64400130710002320D5006386E70609
:1032400083A68400130720002322D500638EE704A1
:1032500083A6C400130730002324D5006386E70447
:1032600083A60401130740002326D500638EE702DE
:1032700083A64401130750002328D5006386E70284
:1032800083A6840113076000232AD500638EE7001C
:1032900083A6C40113077000232CD5006386E700C2
:1032A00003A70402232EE5002320F40223A08900B3
:1032B0008320C101032481018324410103290101E9
:1032C0008329C100032A81001305000013010102B4
:1032D0006780000037160E40B7150E40130686575C
:1032E0009385055813050A00EFE08FAA832709008C
:1032F000130509009305040083A74700E780070032
:103300008320C10103248101832441010329010198
:103310008329C100032A8100130510001301010253
:1033200067800000EFE0C855130101FF23248100EE
:10333000232611002322910013040500630A050EC1
:103340006388050E130506006304060E93840600C9
:103350006380060E832706009305200013061000E5
:1033600083A70700E7800700832704001306A00057
:1033700023000500B307F44003D70700A3000500AE
:103380006374E60883D6A70063800608B306D400FA
:1033900003C606009306F0006318D6069306C00025
:1033A00063F4E60683D7C7003304F400638E070492
:1033B00083270400930680003304F400832704006D
:1033C000B307F44003D7070063FEE60403D6870083
:1033D00093060000630806003306C4008346060017
:1033E000B336D0002300D5009306A00063FCE602AC
:1033F00083D7A700638807023304F40083470400DF
:10340000B337F000A300F5008320C100032481003E
:1034100023A0A4008324410013050000130101012F
:103420006780000093070000A300F5006FF0DFFD48
:10343000EFE00845130101FF23248100232611003A
:103440002322910013040500630A050E6388050E0C
:10345000130506006304060E938406006380060EBF
:1034600083270600930520001306100083A707009A
:10347000E7800700832704001306A000230005004F
:10348000B307F44003D70700A30005006374E60800
:1034900083D6A70063800608B306D40003C60600DF
:1034A0009306A0046318D6069306C00063F4E606EC
:1034B00083D7C7003304F400638E07048327040016
:1034C000930640003304F40083270400B307F4405C
:1034D00003D7070063FEE60403D647009306000007
:1034E000630806003306C40083460600B336D000E6
:1034F0002300D5009306600063FCE60283D76700D3
:10350000638807023304F40083470400B337F000F4
:10351000A300F5008320C1000324810023A0A400A0
:10352000832441001305000013010101678000009E
:1035300093070000A300F5006FF0DFFDEFE04834D3
:10354000130500006780000013050000678000007D
:10355000130500006780000083270600130101FEA9
:10356000232A910083A7070093040600232C8100DF
:1035700023282101130405002326310123244101BE
:10358000232E1100138A0500130640009305400006
:103590001385040093890600E78007008327040051
:1035A0009306A00023200500B307F44003D70700CB
:1035B0001309050063F6E60083D6A70063980602A8
:1035C00023A02901130400008320C1011305040076
:1035D0000324810183244101032901018329C100BE
:1035E000032A81001301010267800000B306D400A2
:1035F00003C6060093067003E314D6FC9306C000CE
:10360000E3F0E6FC83D7C7003304F400E38A07FA4B
:103610008327040013074000130500003304F4005F
:1036200083270400B307F44083D60700637AD700EA
:1036300083D74700638607003304F40003050400C2
:1036400013060A0093050900EFD09FF81304050044
:10365000E30805F683A70400930509001385040019
:1036600083A74700E78007006FF01FF613050000EF
:10367000678000001305000067800000130101FF50
:103680002324810023261100232291001304050026
:103690006302050C6380050C13050600630C060A23
:1036A000938406006388060A83270600930540007A
:1036B0001306400083A70700E78007008327040064
:1036C000130700002320E500B307F44003D70700E9
:1036D0009306A00063F2E60683D6A700638E060475
:1036E000B306D40003C60600930690006316D60402
:1036F0009306C00063F2E60483D7C7003304F400E6
:10370000638C070283270400930640001307000020
:103710003304F40083270400B307F44003D6070002
:1037200063FAC60083D74700638607003304F400BA
:10373000032704002320E5008320C1000324810027
:1037400023A0A400832441001305000013010101FC
:1037500067800000EFE0C8121305000067800000DA
:10376000130101FF2324810023261100232291004D
:10377000130405006300050C638E050A130506009B
:10378000630A060A938406006386060A83270600F6
:10379000930540001306400083A70700E780070059
:1037A000832704009306A00023200500B307F440FC
:1037B00003D7070063F2E60683D6A700638E0604EC
:1037C000B306D40003C60600930630016316D60480
:1037D0009306C00063F2E60483D7C7003304F40005
:1037E000638C070283270400930640001307000040
:1037F0003304F40083270400B307F44003D6070022
:1038000063FAC60083D74700638607003304F400D9
:10381000032704002320E5008320C1000324810046
:1038200023A0A4008324410013050000130101011B
:1038300067800000EFE0C804130101FF232481002A
:103840002326110023229100130405006300050CB8
:10385000638E050A13050600630A060A93840600B0
:103860006386060A8327060093054000130640007E
:1038700083A70700E7800700832704009306A000C2
:1038800023200500B307F44003D7070063F2E606E0
:1038900083D6A700638E0604B306D40003C60600D1
:1038A000930630026316D6049306C00063F2E60462
:1038B00083D7C7003304F400638C07028327040016
:1038C00093064000130700003304F400832704002C
:1038D000B307F44003D6070063FAC60083D7470056
:1038E000638607003304F400032704002320E50067
:1038F0008320C1000324810023A0A400832441006D
:10390000130500001301010167800000EFD0587714
:10391000130101FF2324810023261100232291009B
:10392000130405006300050C638E050A13050600E9
:10393000630A060A938406006386060A8327060044
:10394000930540001306400083A70700E7800700A7
:10395000832704009306A00023200500B307F4404A
:1039600003D7070063F2E60683D6A700638E06043A
:10397000B306D40003C606009306F0046316D6040B
:103980009306C00063F2E60483D7C7003304F40053
:10399000638C07028327040093064000130700008E
:1039A0003304F40083270400B307F44003D6070070
:1039B00063FAC60083D74700638607003304F40028
:1039C000032704002320E5008320C1000324810095
:1039D00023A0A4008324410013050000130101016A
:1039E00067800000EFD0D869130101FF2324810014
:1039F0002326110023229100130405006300051AF9
:103A0000638E051813050600630A061893840600E2
:103A100063860618832706009305000113064000FD
:103A200083A70700E78007008327040093060000B0
:103A300023200500B307F44003D707001306A000B6
:103A40002322D5002324D5002316050023070500D3
:103A50006370E61283D6A700638C0610B306D40009
:103A600003C60600930670046314D6109306C000C4
:103A700063F0E61083D7C7003304F400638A070EAF
:103A800083270400130740003304F4008327040055
:103A9000B307F44083D60700637AD70E03D74700F5
:103AA00013060000630007023307E40083050700E4
:103AB000130840001387F5FF1377F70F6364E800DE
:103AC000138605002320C500130760006372D70C1E
:103AD00003D7670013060000630607003307E400FE
:103AE000032607002322C500130780006372D70A4C
:103AF00003D7870013060000630607003307E400BE
:103B0000032607002324C5001307A0006372D7080B
:103B100003D6A70013070000630806003306C4009D
:103B2000034706003337E0002306E5001307C00013
:103B30006370D70603D6C7001307000063080600AA
:103B40003306C400034706003337E000A306E50050
:103B50001307E000637ED70283D7E700638A07027A
:103B60003304F40083470400B337F0002307F50063
:103B70008320C1000324810023A0A40083244100EA
:103B800013050000130101016780000023200500D8
:103B9000930700002307F5006FF09FFDEFD0584E0C
:103BA000130101FE232E1100232C8100232A9100F2
:103BB000232821012326310123244101630A051C06
:103BC000138A05006386051C130906006302061CA0
:103BD00093890600638E061A832706009304050066
:103BE0001306400083A70700930540021305090050
:103BF000E780070083A704001308A0002320050026
:103C0000B387F44003D707002322050023240500CF
:103C10002326050023280500232A0500232C050060
:103C2000232E050023200502130405006376E80E09
:103C300083D6A7006382060EB386D40003C60600AF
:103C40009306E001631AD60C9306C00063F6E60CF7
:103C500083D7C700B384F4006380070C83A70400F4
:103C600013074000B384F40083A70400B387F44033
:103C700083D607006372D70A83D74700638E07088D
:103C8000B384F40083A7040013078000B384F40016
:103C900083A704006366F70A638E070683A64400C1
:103CA000130710002320D5006386E70683A684004F
:103CB000130720002322D500638EE70483A6C400E7
:103CC000130730002324D5006386E70483A604018C
:103CD000130740002326D500638EE70283A6440124
:103CE000130750002328D5006386E70283A68401CA
:103CF00013076000232AD500638EE70083A6C40162
:103D000013077000232CD5006386E70003A7040285
:103D1000232EE5002320F40223A089008320C10183
:103D20000324810183244101032901018329C10066
:103D3000032A8100130500001301010267800000BF
:103D400037160E40B7150E401306465C938505588E
:103D500013050A00EFD0DF8383270900130509004C
:103D60009305040083A74700E78007008320C10173
:103D70000324810183244101032901018329C10016
:103D8000032A81001305100013010102678000005F
:103D9000EFD0182F13050000678000001305000006
:103DA000678000001305000067800000130101FF19
:103DB00023248100232611002322910013040500EF
:103DC000630C0514638A05141305060063060614C4
:103DD000938406006382061483270600930540013E
:103DE0001306400083A70700E7800700832704002D
:103DF0001306A00023200500B307F44003D70700F3
:103E0000232205002324050023260500232805007E
:103E10006370E60E83D6A700638C060CB306D4004D
:103E200003C60600930600026314D60C9306C00076
:103E300063F0E60C83D7C7003304F400638A070AF3
:103E400083270400930640003304F4008327040012
:103E5000B307F44003D7070063FAE60A83D64700A6
:103E60001306000063860600B306D40003A606000E
:103E70002320C5009306600063FAE60883D6670036
:103E80001306000063860600B306D40003A60600EE
:103E90002322C5009306800063FAE60683D68700D6
:103EA0001306000063860600B306D40003A60600CE
:103EB0002324C5009306A00063FAE60483D6A70076
:103EC0001306000063860600B306D40003A60600AE
:103ED0002326C5009306C00063FAE60283D7C70015
:103EE000638607023304F400832704002328F500C7
:103EF0008320C1000324810023A0A4008324410067
:103F00001305000013010101678000009307000002
:103F10002328F5006FF0DFFDEFD09816130101FFA5
:103F2000232481002326110023229100130405007D
:103F30006306051063840510130506006300061070
:103F400093840600638C060E832706009305800089
:103F50001306400083A70700E780070083270400BB
:103F60001306A00023200500B307F44003D7070081
:103F700023020500637EE60883D6A700638A06084D
:103F8000B306D40003C606009306C0016312D60828
:103F90009306C00063FEE60683D7C7003304F4002F
:103FA0006388070683270400930640003304F40067
:103FB00083270400B307F44003D7070063F8E6063D
:103FC00083D647001306000063800602B306D400C0
:103FD00083850600130840009386F5FF93F6F60FDD
:103FE0006364D800138605002320C5009306600093
:103FF00063F8E60403D7670093071000630807001F
:104000003304E40083470400B337F0002302F500D3
:104010008320C1000324810023A0A4008324410045
:1040200013050000130101016780000093071000D1
:10403000232005002302F5006FF09FFDEFD0580408
:10404000930710002302F5006FF09FFC130101FF9E
:10405000232481002326110023229100130405004C
:10406000630405126382051213050600630E061031
:1040700093840600638A0610832706009305C00018
:104080001306400083A70700E7800700832704008A
:104090001306A00023200500B307F44003D7070050
:1040A0002322050023040500637CE60A83D6A700CB
:1040B0006388060AB306D40003C6060093066000B0
:1040C0006310D60A9306C00063FCE60883D7C700D6
:1040D0003304F40063860708832704009306400036
:1040E0003304F40083270400B307F44003D7070028
:1040F00063F6E60883D647001306000063860600D1
:10410000B306D40003A606002320C5009306600072
:1041100063FEE60683D6670013060000638006028E
:10412000B306D40083850600130840009386F5FF8C
:1041300093F6F60F6364D800138605002322C500AA
:104140009306800063FCE60283D78700638807023A
:104150003304F40083470400B337F0002304F50070
:104160008320C1000324810023A0A40083244100F4
:104170001305000013010101678000009307000090
:104180002304F5006FF0DFFDEFD0886F1306000009
:104190006FF0DFFA130500006780000013050000D0
:1041A00067800000130101FF2324810023261100F2
:1041B0002322910013040500630E0514638C05147B
:1041C000130506006308061493840600638406142E
:1041D00083270600930500011306400083A707000C
:1041E000E7800700832704001306A00023200500B2
:1041F000B307F44003D7070023220500232405005A
:10420000232605006370E60E83D6A700638C060C98
:10421000B306D40003C60600930610036314D60C3D
:104220009306C00063F0E60C83D7C7003304F400A4
:10423000638A070A83270400930640003304F400CE
:1042400083270400B307F44003D7070063FAE60AA4
:1042500083D6470013061000638E0600B306D40011
:1042600083860600638806009386F6FF93B61600E1
:10427000139616002320C5009306600063F6E60837
:1042800083D667001306000063860600B306D400D9
:1042900003A606002322C5009306800063F6E60607
:1042A00083D687001306000063860600B306D40099
:1042B00003A606002324C5009306A00063F6E604C7
:1042C00083D7A700638207043304F4008307040044
:1042D000930640001387F7FF1377F70F63E6E602B4
:1042E0002326F5008320C1000324810023A0A4001D
:1042F00083244100130500001301010167800000C1
:10430000930710002320F500930700002326F500F3
:104310006FF05FFDEFD0C856130101FF2324810029
:104320002326110023229100130405006306050EC5
:104330006384050E130506006300060E93840600D1
:10434000638C060C8327060093058000130640004B
:1043500083A70700E7800700832704009306A000D7
:1043600023200500B307F44003D7070023220500EC
:1043700063F0E60883D6A700638C0606B306D40074
:1043800003C60600930600046314D6069306C00015
:1043900063F0E60683D7C7003304F400638A07049A
:1043A00083270400930640003304F40083270400AD
:1043B000B307F44003D7070063FAE60483D6470047
:1043C0001306000063860600B306D40003A60600A9
:1043D0002320C5009306600063FAE60283D76700D6
:1043E000638607023304F400832704002322F500C8
:1043F0008320C1000324810023A0A4008324410062
:1044000013050000130101016780000093070000FD
:104410002322F5006FF0DFFDEFD08846130101FF86
:104420002324810023261100232291001304050078
:104430006306050E6384050E130506006300060E71
:1044400093840600638C060C832706009305800086
:104450001306400083A70700E780070083270400B6
:104460001306A00023200500B307F44003D707007C
:10447000232205006376E60883D6A7006382060838
:10448000B306D40003C606009306F006631AD606E8
:104490009306C00063F6E60683D7C7003304F40032
:1044A0006380070683270400130740003304F400E9
:1044B00083270400B307F44083D607006372D70450
:1044C00003D74700630C07003307E4000326070007
:1044D0003307C700130747002320E50013076000D8
:1044E0006370D70283D76700638C07003304F4003E
:1044F000832704003304F4001304440023228500BE
:104500008320C1000324810023A0A4008324410050
:10451000130500001301010167800000EFD0483649
:10452000130101FF2324810023261100232291007F
:10453000130405006306050E6384050E13050600CB
:104540006300060E93840600638C060C8327060026
:10455000930580001306400083A70700E78007004B
:10456000832704009306A00023200500B307F4402E
:1045700003D707002322050063F0E60883D6A700CF
:10458000638C0606B306D40003C606009306D00566
:104590006314D6069306C00063F0E60683D7C7000F
:1045A0003304F400638A0704832704009306400061
:1045B0003304F40083270400B307F44003D7070053
:1045C00063FAE60483D647001306000063860600FC
:1045D000B306D40003A606002320C500930660009E
:1045E00063FAE60283D76700638607023304F400A8
:1045F000832704002322F5008320C10003248100C7
:1046000023A0A4008324410013050000130101012D
:1046100067800000930700002322F5006FF0DFFDA4
:10462000EFD008261305000067800000130101FE8B
:10463000232C8100232A91002328210123263101E4
:104640002324410123225101232E110023A006001F
:10465000930405009389050013890600130A0600D8
:10466000EFA0D80383A7040093058000130405007E
:10467000B387F44003D70700930A100063F6E50000
:1046800083D68700639006069305E00963C4850618
:1046900093060002630ED40683A7090013860A005E
:1046A0009305040083A7070013850900E78007002E
:1046B000930705002320A900130500006386070A5D
:1046C0008320C101032481018324410103290101C5
:1046D0008329C100032A8100832A410013010102BA
:1046E00067800000B386D4009305E00983AA060022
:1046F000E3D085FAB7150E40130604009385C55C18
:1047000013050A00EFC0DFE8130510006FF05FFB30
:104710009306600063FEE60283D56700638A0502A4
:1047200083A70900B384B40083A5040083A74700CE
:1047300013860A00B385B4009385450013850900EC
:10474000E78007002320A900133515006FF05FF7FD
:10475000B7150E409385456C13050A00EFC05FE363
:10476000130510006FF0DFF5634A0402B7250E4011
:1047700013142400938505E73304B40003260400D2
:10478000B7150E4093860A009385056213050A004B
:10479000EFC01FE0130510006FF09FF2377609405D
:1047A000130686136FF0DFFD1305150013152500A2
:1047B0006780000093070500630AB50463040504DD
:1047C000638205040326050003A705001305000006
:1047D000631CC702635CC0021385470093854500D4
:1047E000930700006F00C000938545006300F60248
:1047F0008326050003A705009387170013054500CE
:10480000E384E6FE13050000678000001305100036
:10481000678000009307200163EEA700B7270E40D2
:104820009387471A131525003385A7000325050034
:104830006780000037250E401305050F67800000D4
:10484000635EB008130101FE93952500232C8100BF
:10485000232A910023263101232E11002328210130
:104860001304050093040600B309B50003290400EE
:104870009305000013050900EFA09878634AA00291
:104880009307000023A0F400130444009384440021
:10489000E39E89FC8320C10103248101832441011B
:1048A000032901018329C10013010102678000006F
:1048B00023A024011304440093844400E39889FA5C
:1048C0008320C101032481018324410103290101C3
:1048D0008329C10013010102678000006780000086
:1048E000635CB00A130101FEB7370F402322510168
:1048F00083AA474BB7370F402324410103AA874BB4
:1049000093952500232C81002328210123263101A2
:10491000232E1100232A9100130405001309060019
:10492000B309B5008324040093850A0013850400AD
:10493000EFA0186D9307050093050A001385040086
:104940006340F004EFA0D86B634EA002232049011E
:104950001304440013094900E31634FD8320C10108
:104960000324810183244101032901018329C1001A
:10497000032A8100832A410013010102678000009D
:1049800093840A002320990013044400130949006A
:10499000E39A89F86FF09FFC678000006354B00CC5
:1049A000130101FEB7370F402324410103AAC74B6F
:1049B00093952500232C81002328210123263101F2
:1049C000232E1100232A9100130405001309060069
:1049D000B309B5008324040093050A00138504007D
:1049E000EFA01862930705009305000013850400EB
:1049F0006340F004EFA0D860634EA002930700006C
:104A00002320F9001304440013094900E31434FD82
:104A10008320C10103248101832441010329010171
:104A20008329C100032A810013010102678000006D
:104A300093040A0023209900130444001309490039
:104A4000E39A89F88320C101032481018324410171
:104A5000032901018329C100032A810013010102F6
:104A60006780000067800000635EB004130101FFEF
:104A700093952500232481002322910023202101E6
:104A80002326110013040500930406003309B50022
:104A900003250400938444001304440013250500F7
:104AA000EFB0981A23AEA4FEE31489FE8320C10060
:104AB0000324810083244100032901001301010123
:104AC00067800000678000006354B006830705001C
:104AD000130710009397C70193D7C7412300F6002F
:104AE0006388E5041306160093060500130700000B
:104AF0006F00C00183870600130626009397C70145
:104B000093D7C741A30FF6FE63840503838706008E
:104B1000130807001307270093D747409356174001
:104B20002300F600B306D50013083800E344B7FCB1
:104B300067800000130101FE232C8100232A9100CD
:104B40001384060093040600930600001306000079
:104B50002328210123263101232E1100930905006A
:104B600013890500EFA058606314050223A0040018
:104B70008320C101232004000324810183244101F7
:104B8000032901018329C10013010102678000008C
:104B9000130604001385090093050900EFE0C85EC1
:104BA000B7370F4003A6074C83A6474CEFC08803D6
:104BB000EF001912EFB0D81A6340B006638A0504FB
:104BC0003707008083270400630AE502130710FEFD
:104BD00063D6E70023200400130500008320C101F1
:104BE0000324810123A0A40003290101832441019E
:104BF0008329C1001301010267800000E39805FCCE
:104C0000938717002320F400370500406FF01FFC46
:104C1000B7070080E3F6A7FAEFC09846130101FD3D
:104C2000B7370F4023202103232E310113890600BB
:104C30009309060083A6C74C03A6874C2324810250
:104C400023229102232611029304050013840500F8
:104C5000EFA0D8516358050813850400930504009C
:104C60001306000093060000EFA0D850635CA00676
:104C70001306C1001385040093050400EFE0C8503B
:104C8000B7370F4003A6074C83A6474CEFB0987583
:104C9000EF001904EFB0D80C6346B004638005063A
:104CA000370700808327C1006300E504130710FE67
:104CB00063D6E70223A00900930700008320C10206
:104CC000032481022320F9008324410203290102E5
:104CD0008329C101130101036780000023A0A900FB
:104CE000E35EF0FCEFC0D839E39205FC9387170030
:104CF0002326F100370500406FF05FFBB707008007
:104D0000E3F0A7FA6FF01FFE130101FD23286101F4
:104D1000130B0500370500803355E50023261102EB
:104D2000232481022322910223202103232E3101F7
:104D3000232C410193890700232A51012326710165
:104D4000138A0500938A060093040800930B06005B
:104D5000EFC00865130905001384050093860A0057
:104D600013860B0093050A0013050B00EFB098673C
:104D7000130605009386050013050900930504003A
:104D8000EFB05866B7370F4003A9C74E03AA874E46
:104D9000930A05009306090013060A001384050010
:104DA000EFA0583D6346A006B7370F4003A6874CD7
:104DB00083A6C74C13850A0093050400EFA0983B17
:104DC0006352A00A13850A0093050400130600002D
:104DD00093060000EFA058396310050423A00900D2
:104DE00023A004008320C102032481028324410202
:104DF000032901028329C101032A8101832A410178
:104E0000032B0101832BC100130101036780000004
:104E1000930A0A00130409001386040013850A008C
:104E200093050400EFE04836B7370F4003A6074C60
:104E300083A6474CEFB0185BEF008969EFB048726A
:104E40006342B002638205043707008083A7040031
:104E50006302E502130710FE63C8E70023A0A90060
:104E6000E3D207F8EFC0D82123A0040023A0090053
:104E70006FF05FF7E39005FE9387170023A0F4001F
:104E8000370500406FF01FFDB7070080E3FEA7FA6B
:104E90006FF05FFD130101FC232E7101930B0500E0
:104EA000370500803355E500232E1102232C8102A3
:104EB000232A91022328210323263103232441039B
:104EC00023225103138A070023206103232C81012D
:104ED000938A0500138B06001309080093890800C4
:104EE000130C0600EFC0C84B9304050013840500A3
:104EF00093060B0013060C0093850A0013850B0024
:104F0000EFB0584E13060500938605001385040084
:104F100093050400EFB0184DB7370F4083AAC74E72
:104F200003AB874E9304050093860A0013060B001B
:104F300013840500EFA018246344A012B73A0F4071
:104F400003A68A4C83A6CA4C13850400930504006B
:104F5000EFA058226354A0101385040093050400A9
:104F60001306000093060000EFA01820631E050E34
:104F7000B7370F4023200A0083A4074F03A4474FED
:104F80002320090013070000930700001306070001
:104F9000138504009386070093050400EFC00805FD
:104FA00003A68A4C83A6CA4C93040500138405000B
:104FB000EFA0D81B6354050A138504009305040071
:104FC0001306000093060000EFA0D81A6358A0084B
:104FD0001306C1001385040093050400EFE0C81A0E
:104FE000B7370F4003A6074C83A6474CEFB0983F56
:104FF000EF00094EEFB0C8566342B0066382051257
:10500000370700808327C1006302E510130710FEF5
:1050100063D2E70423A009009307000003270104DB
:105020008320C103032481032320F7008324410349
:10503000032901038329C102032A8102832A410231
:10504000032B0102832BC101032C810113010104F5
:105050006780000023A0A900E352F0FCEFC05802D3
:1050600093040B0013840A0013060900138504003F
:1050700093050400EFE04811B7370F4003A6074C33
:1050800083A6474CEFB01836EF008944EFB0484D87
:10509000E346B0FC638C05083707008083270900CE
:1050A000630CE504130710FE63CEE7022320AA0079
:1050B00013040500E3C407FA370500803355F500F3
:1050C000EFC0082E930405001305040013840500A7
:1050D000EFC0082D1307050093870500B73A0F406E
:1050E0006FF0DFEA2320090023200A0013040000E8
:1050F000930700006FF05FFCE39605FA93871700B3
:105100002320F900370500406FF0DFF9E39005F048
:10511000938717002326F100370500406FF01FEF3B
:10512000B7070080E3FEA7EC6FF05FF3B7070080DE
:10513000E3F4A7F66FF09FF2130101FE232A91001A
:105140009304100023282101130905003395A400BE
:105150001305F5FF232C81002326310113040600DB
:10516000232E110093890500EFC0882333062441C4
:10517000930706FE130905001384050063CE070696
:10518000B395F40013050000EFC0083213060500C4
:10519000938605001305090093050400EFB09824D9
:1051A000938709FE930405001384050063CC07046C
:1051B00093051000B395F50013050000EFC0C82E4D
:1051C000130605009386050013850400930504006B
:1051D000EFB0D861EFD09869EFC088328320C10169
:1051E0000324810183244101032901018329C10092
:1051F0001301010267800000930500003395C4008D
:105200006FF09FF81305100093050000331535016A
:105210006FF0DFFA130101FF232611002324810020
:10522000232291002320210193840500EFE0C87020
:10523000B7370F4083A5874FEFA0181A1304050056
:10524000EF10D940EF00C928EF10194E13090500DF
:10525000EFB048299305090023A0A400130504001A
:10526000EFA0D816B7370F4083A5C74F1315150009
:1052700013551500EFA048588320C1000324810076
:1052800083244100032901001355F5011301010195
:1052900067800000130101FB2326110423248104ED
:1052A0002322910423202105232E3103232C4103A3
:1052B000232A510323286103232671032324810316
:1052C000232291032320A103232EB1012326E100F1
:1052D0002324A1002320F1006358E00A938A0500EB
:1052E0006354B00A9397250013040600131B26008D
:1052F000138A06002322F100130C00008329810089
:105300008324010013090000635E800A930B0A00E6
:10531000938C0900930D0000130D000083A50B0072
:1053200003A50C00938D1D00938C4C00EFA0D80AB0
:105330009305050013050D00EFA00864938B4B0047
:10534000130D0500E31CB4FDB389690103A5040036
:1053500093050D0013091900EFA0086223A0A40013
:1053600093844400E3922AFB832701000327410032
:10537000130C1C00330A6A01B387E7002320F100F5
:105380008327C100E39C87F78320C10403248104A1
:1053900083244104032901048329C103032A8103CF
:1053A000832A4103032B0103832BC102032C8102B7
:1053B000832C4102032D0102832DC101130101053C
:1053C00067800000130D00006FF05FF8130101FA11
:1053D00023206105232E1104232C8104232A910408
:1053E00023282105232631052324410523225105A5
:1053F000232E7103232C8103232A91032328A10345
:105400002326B1032328F100232AB1002326E1003B
:1054100023221101032B01066356F016930B06009D
:105420009385060013030800930E00006358E01EE6
:1054300093041000B394D40183274100832F810685
:105440009384F4FF939617003307F0408327C1003D
:10545000378900001317170093C7F7FF93D7F74159
:10546000B70C00C02324D1009302050093DA144046
:10547000B38FDF00330E6500232CE100930D000095
:10548000232EF100938C1C009309F001378AFFFF53
:10549000130CF9FF832741006358F00C8327C100E8
:1054A0000327C101032641011305000033F4E7007F
:1054B00083278101B386F7018327060063546002C6
:1054C000B388AB001387020003080700038F0800AE
:1054D00013071700938818003308E803B387070100
:1054E000E314EEFEB39787003388B702B398B70290
:1054F0006388F50C138F0C009303F0FF63C2080E52
:10550000B70700403307F800B3370701B387170127
:10551000939717001357F70133E7E70063CAD911D0
:105520009358F70133F8E400B388580183970600D5
:1055300033A808013357D7413307E8003307670121
:10554000B387E70063D44701B787FFFF63C4270130
:1055500093070C002390F60093862600130646005E
:1055600033056500E39ADFF483278100938D1D00E6
:10557000B3826200B38FFF0083270101330E6E00F8
:10558000E39AB7F18320C1050324810583244105F3
:10559000032901058329C104032A8104832A4104C4
:1055A000032B0104832BC103032C8103832C4103B0
:1055B000032D0103832DC102130101066780000042
:1055C000370F00409303000063D60800138F0C00D0
:1055D0009303F0FF370D008013C7F7FFE380A7F5B3
:1055E00033080F013337E801B3881301B3081701FB
:1055F000370700801347F7FF93D7F841B3F7E70069
:10560000338807013337F8003307170113171700E2
:105610001358F801336707016FF05FF0B30EE040F5
:1056200093870EFE93040000E3D807E06FF05FE07D
:10563000B7260E4037260E4037250E409386061FAC
:1056400013060620930570161305C525EFC0C8255F
:10565000130101FA23206105232E1104232C810458
:10566000232A9104232821052326310523244105DB
:1056700023225105232E7103232C8103232A910316
:105680002328A1032326B103232AF100232CB100F0
:105690002328E100032B01066350F016930B06004C
:1056A0009385060013030800138D0800930E000075
:1056B0006350E01E93041000B394D40183270101CA
:1056C000032781069384F4FF93C7F7FF93D7F7412D
:1056D000370C00C09302050093DA1440B30FA70102
:1056E000330E650023260100930D0000232EF100E8
:1056F000130C1C001309F001130A00F89309F007BA
:10570000635AA00D832701010327C10103268101EC
:105710001305000033F4E700832781060327C10047
:10572000B386E7008327060063546002B388AB00AA
:105730001387020003080700038F080013071700F0
:10574000938818003308E803B3870701E314EEFEDB
:10575000B39787003388B702B398B702638CF50C10
:10576000130F0C009303F0FF63C6080EB707004049
:105770003307F800B3370701B38717019397170072
:105780001357F70133E7E700634ED9119358F70138
:1057900033F8E400B38858018387060033A8080172
:1057A0003357D7413307E80033076701B387E70072
:1057B00063D44701930700F863D4F9009307F00717
:1057C0002380F60093861600130646003305650015
:1057D000E39ADFF48327C100938D1D00B38FAF01DF
:1057E000B387A7012326F10083274101B38262001A
:1057F000330E6E00E396B7F18320C10503248105C3
:1058000083244105032901058329C104032A810456
:10581000832A4104032B0104832BC103032C81033E
:10582000832C4103032D0103832DC10213010106C3
:1058300067800000370F00409303000063D6080024
:10584000130F0C009303F0FFB70C008013C7F7FF92
:10585000E38C97F333080F013337E801B388130162
:10586000B3081701370700801347F7FF93D7F841B4
:10587000B3F7E700338807013337F8003307170120
:10588000131717001358F801336707016FF0DFEFA4
:10589000B30EE04093870EFE93040000E3D007E2CE
:1058A0006FF05FE1B7260E4037260E4037250E40D9
:1058B0009386061F13060620930570161305C5254B
:1058C000EFB0987E130101F72326110823248108E5
:1058D0002322910823202109232E3107232C41075D
:1058E000232A5107232861072326710723248107D0
:1058F000232291072320A107232EB105232A010388
:105900002326B102232EC1022324F104232E1101E8
:105910006356005B130CC7001384060013090000D4
:10592000E35A8005930B1000B39B2B0137370F40D0
:10593000032747538326C101B7370F402328E102CD
:105940001397160093D6F6412322D104832601092A
:1059500083A7C753938BFBFF2320D1028326C10269
:105960002326F1049347FCFF93DDF741B70700F0CE
:10597000232CE102B704008013D61B40330BE50053
:10598000B70A00C03387E600938717002328A100D9
:105990002326C1002320E10423220102938A1A0056
:1059A00093C9F4FF232AF1008327C1016352F06CED
:1059B00083260101130D0000930C00001305000065
:1059C0009307000003970600938626003306E7023C
:1059D000B305E5001357F74133B8A5003387E70057
:1059E000B307E800138505003307CD001356F641D1
:1059F000B335A7013386CC00130D0700B38CC50067
:105A0000E312DBFC032AC10183264104135765011D
:105A10009395A70013060A00B365B7001315A500F8
:105A2000EFA0486037071000B3474703130A05008B
:105A30001307F7FF93D6F741B386A603B38CFC0296
:105A40003386A703B38C9601B3B7A703B305A502AA
:105A5000B38CFC00B3174A03B305B6403336B60027
:105A6000B387FC40B387C74093D6F74133F7E600CE
:105A7000B305B70033B7E5003307F7001317C700C6
:105A800093D54501B365B700938705006354B05EB5
:105A9000130710006380E5643707002063CCE75EDE
:105AA00093D72740930EC00013D8174013781800DF
:105AB00093D72740370700FE3308F8001307170075
:105AC000135EF84193085000B70700101303F0FF6E
:105AD000370F004013CDF4FFB70F0002232CE10075
